{
  "contractName": "FarmerFactory",
  "abi": [
    {
      "constant": true,
      "inputs": [
        {
          "internalType": "string",
          "name": "",
          "type": "string"
        }
      ],
      "name": "farmerIndex",
      "outputs": [
        {
          "internalType": "uint256",
          "name": "",
          "type": "uint256"
        }
      ],
      "payable": false,
      "stateMutability": "view",
      "type": "function"
    },
    {
      "constant": true,
      "inputs": [
        {
          "internalType": "uint256",
          "name": "",
          "type": "uint256"
        }
      ],
      "name": "farmers",
      "outputs": [
        {
          "internalType": "string",
          "name": "id",
          "type": "string"
        },
        {
          "internalType": "bool",
          "name": "hasProject",
          "type": "bool"
        },
        {
          "internalType": "bool",
          "name": "isVerified",
          "type": "bool"
        }
      ],
      "payable": false,
      "stateMutability": "view",
      "type": "function"
    },
    {
      "constant": false,
      "inputs": [
        {
          "internalType": "string",
          "name": "_id",
          "type": "string"
        }
      ],
      "name": "_createFarmer",
      "outputs": [],
      "payable": false,
      "stateMutability": "nonpayable",
      "type": "function"
    },
    {
      "constant": false,
      "inputs": [
        {
          "internalType": "string",
          "name": "_farmerId",
          "type": "string"
        }
      ],
      "name": "_verifyFarmer",
      "outputs": [],
      "payable": false,
      "stateMutability": "nonpayable",
      "type": "function"
    },
    {
      "constant": true,
      "inputs": [
        {
          "internalType": "string",
          "name": "_farmerId",
          "type": "string"
        }
      ],
      "name": "_getFarmer",
      "outputs": [
        {
          "components": [
            {
              "internalType": "string",
              "name": "id",
              "type": "string"
            },
            {
              "internalType": "bool",
              "name": "hasProject",
              "type": "bool"
            },
            {
              "internalType": "bool",
              "name": "isVerified",
              "type": "bool"
            }
          ],
          "internalType": "struct FarmerFactory.Farmer",
          "name": "",
          "type": "tuple"
        }
      ],
      "payable": false,
      "stateMutability": "view",
      "type": "function"
    }
  ],
  "bytecode": "0x608060405234801561001057600080fd5b50610a16806100206000396000f3fe608060405234801561001057600080fd5b50600436106100575760003560e01c806338bdf20a1461005c5780636e2aef5a14610078578063780f9794146100a85780638afdd669146100c4578063e407dbf5146100f6575b600080fd5b6100766004803603610071919081019061066f565b610126565b005b610092600480360361008d919081019061062e565b610201565b60405161009f9190610870565b60405180910390f35b6100c260048036036100bd919081019061066f565b61022f565b005b6100de60048036036100d991908101906106b0565b61028d565b6040516100ed93929190610810565b60405180910390f35b610110600480360361010b919081019061066f565b610376565b60405161011d919061084e565b60405180910390f35b6000600160006040518060600160405280858152602001600015158152602001600015158152509080600181540180825580915050906001820390600052602060002090600202016000909192909190915060008201518160000190805190602001906101949291906104a7565b5060208201518160010160006101000a81548160ff02191690831515021790555060408201518160010160016101000a81548160ff0219169083151502179055505050039050806001836040516101eb91906107f9565b9081526020016040518091039020819055505050565b6001818051602081018201805184825260208301602085012081835280955050505050506000915090505481565b600060018260405161024191906107f9565b908152602001604051809103902054905060016000828154811061026157fe5b906000526020600020906002020160010160016101000a81548160ff0219169083151502179055505050565b6000818154811061029a57fe5b9060005260206000209060020201600091509050806000018054600181600116156101000203166002900480601f0160208091040260200160405190810160405280929190818152602001828054600181600116156101000203166002900480156103465780601f1061031b57610100808354040283529160200191610346565b820191906000526020600020905b81548152906001019060200180831161032957829003601f168201915b5050505050908060010160009054906101000a900460ff16908060010160019054906101000a900460ff16905083565b61037e610527565b600060018360405161039091906107f9565b9081526020016040518091039020549050600081815481106103ae57fe5b9060005260206000209060020201604051806060016040529081600082018054600181600116156101000203166002900480601f0160208091040260200160405190810160405280929190818152602001828054600181600116156101000203166002900480156104605780601f1061043557610100808354040283529160200191610460565b820191906000526020600020905b81548152906001019060200180831161044357829003601f168201915b505050505081526020016001820160009054906101000a900460ff161515151581526020016001820160019054906101000a900460ff161515151581525050915050919050565b828054600181600116156101000203166002900490600052602060002090601f016020900481019282601f106104e857805160ff1916838001178555610516565b82800160010185558215610516579182015b828111156105155782518255916020019190600101906104fa565b5b509050610523919061054c565b5090565b6040518060600160405280606081526020016000151581526020016000151581525090565b61056e91905b8082111561056a576000816000905550600101610552565b5090565b90565b600082601f83011261058257600080fd5b8135610595610590826108b8565b61088b565b915080825260208301602083018583830111156105b157600080fd5b6105bc838284610969565b50505092915050565b600082601f8301126105d657600080fd5b81356105e96105e4826108e4565b61088b565b9150808252602083016020830185838301111561060557600080fd5b610610838284610969565b50505092915050565b600081359050610628816109bc565b92915050565b60006020828403121561064057600080fd5b600082013567ffffffffffffffff81111561065a57600080fd5b61066684828501610571565b91505092915050565b60006020828403121561068157600080fd5b600082013567ffffffffffffffff81111561069b57600080fd5b6106a7848285016105c5565b91505092915050565b6000602082840312156106c257600080fd5b60006106d084828501610619565b91505092915050565b6106e281610953565b82525050565b6106f181610953565b82525050565b60006107028261091b565b61070c8185610948565b935061071c818560208601610978565b80840191505092915050565b600061073382610910565b61073d8185610926565b935061074d818560208601610978565b610756816109ab565b840191505092915050565b600061076c82610910565b6107768185610937565b9350610786818560208601610978565b61078f816109ab565b840191505092915050565b600060608301600083015184820360008601526107b78282610728565b91505060208301516107cc60208601826106d9565b5060408301516107df60408601826106d9565b508091505092915050565b6107f38161095f565b82525050565b600061080582846106f7565b915081905092915050565b6000606082019050818103600083015261082a8186610761565b905061083960208301856106e8565b61084660408301846106e8565b949350505050565b60006020820190508181036000830152610868818461079a565b905092915050565b600060208201905061088560008301846107ea565b92915050565b6000604051905081810181811067ffffffffffffffff821117156108ae57600080fd5b8060405250919050565b600067ffffffffffffffff8211156108cf57600080fd5b601f19601f8301169050602081019050919050565b600067ffffffffffffffff8211156108fb57600080fd5b601f19601f8301169050602081019050919050565b600081519050919050565b600081519050919050565b600082825260208201905092915050565b600082825260208201905092915050565b600081905092915050565b60008115159050919050565b6000819050919050565b82818337600083830152505050565b60005b8381101561099657808201518184015260208101905061097b565b838111156109a5576000848401525b50505050565b6000601f19601f8301169050919050565b6109c58161095f565b81146109d057600080fd5b5056fea365627a7a72315820d6c56f1b723b4d706c568722c628680ebb89546b6d3e7f6dceec5a20a0561cda6c6578706572696d656e74616cf564736f6c63430005110040",
  "source": "pragma solidity ^0.5.0;\r\npragma experimental ABIEncoderV2;\r\ncontract FarmerFactory {\r\n    struct Farmer {\r\n        string id;\r\n        bool hasProject;\r\n        bool isVerified;\r\n    }\r\n\r\n    Farmer[] public farmers;\r\n    \r\n    // Maps farmer id to index\r\n    mapping(string=> uint) public farmerIndex;\r\n\r\n    function _createFarmer(string memory _id) public {\r\n        uint index = farmers.push(Farmer(_id, false, false)) - 1;\r\n        farmerIndex[_id] = index; \r\n    }\r\n\r\n    function _verifyFarmer(string memory _farmerId) public {\r\n        uint index = farmerIndex[_farmerId];\r\n        farmers[index].isVerified = true;\r\n    }\r\n\r\n    function _getFarmer(string memory _farmerId) public view returns(Farmer memory){\r\n        uint index=farmerIndex[_farmerId];\r\n        return farmers[index];\r\n    }\r\n}",
  "sourcePath": "/home/sagar/Desktop/AgroFund/AgroFund-Frontend/contracts/FarmerFactory.sol",
  "compiler": {
    "name": "solc",
    "version": "0.5.17+commit.d19bba13.Emscripten.clang"
  },
  "schemaVersion": "3.4.1",
  "updatedAt": "2021-07-07T15:28:37.758Z",
  "devdoc": {
    "methods": {}
  },
  "userdoc": {
    "methods": {}
  }
}