{
  "contractName": "FarmerFactory",
  "abi": [
    {
      "constant": true,
      "inputs": [
        {
          "internalType": "address",
          "name": "",
          "type": "address"
        }
      ],
      "name": "farmerIndex",
      "outputs": [
        {
          "internalType": "uint256",
          "name": "",
          "type": "uint256"
        }
      ],
      "payable": false,
      "stateMutability": "view",
      "type": "function"
    },
    {
      "constant": true,
      "inputs": [
        {
          "internalType": "uint256",
          "name": "",
          "type": "uint256"
        }
      ],
      "name": "farmers",
      "outputs": [
        {
          "internalType": "uint256",
          "name": "id",
          "type": "uint256"
        },
        {
          "internalType": "bool",
          "name": "hasProject",
          "type": "bool"
        },
        {
          "internalType": "bool",
          "name": "isVerified",
          "type": "bool"
        }
      ],
      "payable": false,
      "stateMutability": "view",
      "type": "function"
    },
    {
      "constant": false,
      "inputs": [
        {
          "internalType": "uint256",
          "name": "_id",
          "type": "uint256"
        },
        {
          "internalType": "bool",
          "name": "_hasProject",
          "type": "bool"
        },
        {
          "internalType": "bool",
          "name": "_isVerified",
          "type": "bool"
        }
      ],
      "name": "createFarmer",
      "outputs": [],
      "payable": false,
      "stateMutability": "nonpayable",
      "type": "function"
    },
    {
      "constant": false,
      "inputs": [
        {
          "internalType": "bool",
          "name": "status",
          "type": "bool"
        },
        {
          "internalType": "address",
          "name": "farmer",
          "type": "address"
        }
      ],
      "name": "verifyFarmer",
      "outputs": [],
      "payable": false,
      "stateMutability": "nonpayable",
      "type": "function"
    }
  ],
  "bytecode": "0x608060405234801561001057600080fd5b5061039d806100206000396000f3fe608060405234801561001057600080fd5b506004361061004c5760003560e01c80637a77f954146100515780638afdd669146100a95780639cfb771914610101578063a336ff4214610151575b600080fd5b6100936004803603602081101561006757600080fd5b81019080803573ffffffffffffffffffffffffffffffffffffffff169060200190929190505050610197565b6040518082815260200191505060405180910390f35b6100d5600480360360208110156100bf57600080fd5b81019080803590602001909291905050506101af565b604051808481526020018315151515815260200182151515158152602001935050505060405180910390f35b61014f6004803603604081101561011757600080fd5b81019080803515159060200190929190803573ffffffffffffffffffffffffffffffffffffffff169060200190929190505050610200565b005b6101956004803603606081101561016757600080fd5b810190808035906020019092919080351515906020019092919080351515906020019092919050505061027f565b005b60016020528060005260406000206000915090505481565b600081815481106101bc57fe5b90600052602060002090600202016000915090508060000154908060010160009054906101000a900460ff16908060010160019054906101000a900460ff16905083565b6000600160008373ffffffffffffffffffffffffffffffffffffffff1673ffffffffffffffffffffffffffffffffffffffff168152602001908152602001600020549050826000828154811061025257fe5b906000526020600020906002020160010160016101000a81548160ff021916908315150217905550505050565b60006001600060405180606001604052808781526020018615158152602001851515815250908060018154018082558091505090600182039060005260206000209060020201600090919290919091506000820151816000015560208201518160010160006101000a81548160ff02191690831515021790555060408201518160010160016101000a81548160ff021916908315150217905550505003905080600160003373ffffffffffffffffffffffffffffffffffffffff1673ffffffffffffffffffffffffffffffffffffffff168152602001908152602001600020819055505050505056fea265627a7a723158200e1f1222f1ad7a4db006faa575629cbf8c1747cc2ce145cb111889147ee1b42d64736f6c63430005110032",
  "source": "pragma solidity ^0.5.0;\r\n\r\ncontract FarmerFactory {\r\n    struct Farmer {\r\n        uint id;\r\n        bool hasProject;\r\n        bool isVerified;\r\n    }\r\n\r\n    Farmer[] public farmers;\r\n    \r\n    mapping(address => uint) public farmerIndex;\r\n\r\n    function createFarmer(uint _id, bool _hasProject, bool _isVerified) public {\r\n        uint index = farmers.push(Farmer(_id, _hasProject, _isVerified)) - 1;\r\n        farmerIndex[msg.sender] = index; \r\n    }\r\n\r\n    function verifyFarmer(bool status,address farmer) public {\r\n        uint index = farmerIndex[farmer];\r\n        farmers[index].isVerified = status;\r\n    }\r\n}",
  "sourcePath": "C:/My Folders/AgroFund-Frontend/contracts/FarmerFactory.sol",
  "compiler": {
    "name": "solc",
    "version": "0.5.17+commit.d19bba13.Emscripten.clang"
  },
  "schemaVersion": "3.4.1",
  "updatedAt": "2021-07-04T09:18:20.313Z",
  "networkType": "ethereum",
  "devdoc": {
    "methods": {}
  },
  "userdoc": {
    "methods": {}
  }
}