{
  "contractName": "InvestorFactory",
  "abi": [
    {
      "constant": true,
      "inputs": [
        {
          "internalType": "address",
          "name": "",
          "type": "address"
        }
      ],
      "name": "investorIndex",
      "outputs": [
        {
          "internalType": "uint256",
          "name": "",
          "type": "uint256"
        }
      ],
      "payable": false,
      "stateMutability": "view",
      "type": "function"
    },
    {
      "constant": true,
      "inputs": [
        {
          "internalType": "uint256",
          "name": "",
          "type": "uint256"
        }
      ],
      "name": "investors",
      "outputs": [
        {
          "internalType": "uint256",
          "name": "id",
          "type": "uint256"
        },
        {
          "internalType": "bool",
          "name": "isVerified",
          "type": "bool"
        }
      ],
      "payable": false,
      "stateMutability": "view",
      "type": "function"
    },
    {
      "constant": false,
      "inputs": [
        {
          "internalType": "uint256",
          "name": "_id",
          "type": "uint256"
        },
        {
          "internalType": "bool",
          "name": "_isVerified",
          "type": "bool"
        }
      ],
      "name": "createInvestor",
      "outputs": [],
      "payable": false,
      "stateMutability": "nonpayable",
      "type": "function"
    },
    {
      "constant": false,
      "inputs": [
        {
          "internalType": "bool",
          "name": "status",
          "type": "bool"
        },
        {
          "internalType": "address",
          "name": "investor",
          "type": "address"
        }
      ],
      "name": "verifyInvestor",
      "outputs": [],
      "payable": false,
      "stateMutability": "nonpayable",
      "type": "function"
    }
  ],
  "bytecode": "0x608060405234801561001057600080fd5b5061034a806100206000396000f3fe608060405234801561001057600080fd5b506004361061004c5760003560e01c806309246cb8146100515780631c4cb80f146100a157806328d9793d146100f95780633feb5f2b14610133575b600080fd5b61009f6004803603604081101561006757600080fd5b81019080803515159060200190929190803573ffffffffffffffffffffffffffffffffffffffff169060200190929190505050610180565b005b6100e3600480360360208110156100b757600080fd5b81019080803573ffffffffffffffffffffffffffffffffffffffff1690602001909291905050506101ff565b6040518082815260200191505060405180910390f35b6101316004803603604081101561010f57600080fd5b8101908080359060200190929190803515159060200190929190505050610217565b005b61015f6004803603602081101561014957600080fd5b81019080803590602001909291905050506102d7565b60405180838152602001821515151581526020019250505060405180910390f35b6000600160008373ffffffffffffffffffffffffffffffffffffffff1673ffffffffffffffffffffffffffffffffffffffff16815260200190815260200160002054905082600082815481106101d257fe5b906000526020600020906002020160010160006101000a81548160ff021916908315150217905550505050565b60016020528060005260406000206000915090505481565b6000600160006040518060400160405280868152602001851515815250908060018154018082558091505090600182039060005260206000209060020201600090919290919091506000820151816000015560208201518160010160006101000a81548160ff021916908315150217905550505003905080600160003373ffffffffffffffffffffffffffffffffffffffff1673ffffffffffffffffffffffffffffffffffffffff16815260200190815260200160002081905550505050565b600081815481106102e457fe5b90600052602060002090600202016000915090508060000154908060010160009054906101000a900460ff1690508256fea265627a7a723158209cfb1b3aa712606026747a8909301ee489294a9d5ada8b82cc334ffaf66cfd5964736f6c63430005110032",
  "source": "pragma solidity ^0.5.0;\r\n\r\ncontract InvestorFactory {\r\n    struct Investor {\r\n        uint id;\r\n        bool isVerified;\r\n    }\r\n\r\n    Investor[] public investors;\r\n    \r\n    mapping(address => uint) public investorIndex;\r\n\r\n    function createInvestor(uint _id, bool _isVerified) public {\r\n        uint index = investors.push(Investor(_id, _isVerified)) - 1;\r\n        investorIndex[msg.sender] = index; \r\n    }\r\n\r\n    function verifyInvestor(bool status,address investor) public {\r\n        uint index = investorIndex[investor];\r\n        investors[index].isVerified = status;\r\n    }\r\n}",
  "sourcePath": "/home/sagar/Desktop/AgroFund/AgroFund-Frontend/contracts/InvestorFactory.sol",
  "compiler": {
    "name": "solc",
    "version": "0.5.17+commit.d19bba13.Emscripten.clang"
  },
  "schemaVersion": "3.4.1",
  "updatedAt": "2021-07-07T04:46:40.271Z",
  "networkType": "ethereum",
  "devdoc": {
    "methods": {}
  },
  "userdoc": {
    "methods": {}
  }
}